:10000000400400203D0A0000590A0000C309000016
:10001000610A0000650A0000690A00000000000093
:100020000000000000000000000000006D0A000059
:10003000710A000000000000750A0000B10900000C
:100040007D0A0000810A0000850A0000890A00007C
:100050008D0A0000910A0000950A00007307000055
:100060009D0A0000A10A0000A50A0000A90A0000DC
:10007000AD0A0000B10A0000B50A0000B90A00008C
:10008000BD0A0000C10A0000C50A0000C90A00003C
:10009000CD0A0000D10A0000D50A0000D90A0000EC
:1000A000DD0A0000E10A0000E50A0000E90A00009C
:1000B000ED0A0000F10A0000F50A0000F90A00004C
:1000C000FD0A0000010B0000050B0000090B0000F9
:1000D0000D0B0000250900004B090000190B000062
:1000E0001D080000210B0000250B0000290B00005B
:1000F0002D0B0000310B0000350B00008F070000B6
:100100003D0B0000410B0000450B0000490B0000B7
:100110004D0B0000510B0000AD080000590B000012
:100120005D0B0000610B0000650B0000690B000017
:1001300070B504000D00160000F057F900F061F9E9
:1001400000F026F900F042F900F05AF814F0FE042D
:100150002000C0B200F06AF800F07FF8012803D157
:1001600000F0A4F9002015E0002401E06D1C641CDF
:10017000E4B2F6B2B4420AD2287800F0BDF800F03A
:100180006CF80128F2D100F091F9002002E000F0B3
:10019000DBF8012070BD70B504000D00160000F002
:1001A00024F900F02EF900F0F3F800F00FF900F058
:1001B00027F854F001042000C0B200F037F800F036
:1001C0004CF8012803D100F071F9002017E000F08D
:1001D000D0F8002406E000F0A6F8287000F05EF8E1
:1001E0006D1C641CE4B2F6B2701E8442F3DB00F0B6
:1001F0009AF8287000F06AF800F0A6F8012070BDA7
:1002000080B500F0F2F800F0FCF84FF47A7000F0DE
:1002100053F900F0F0F84FF47A7000F04DF900F067
:10022000F6F84FF47A7000F047F901BD38B50400D4
:10023000002504E00020C0B200F0EFF86D1CEDB224
:10024000082D09D20120D5F1070188402100C9B24B
:100250000142EFD00120EEE731BD10B500F089F882
:100260004FF47A7000F028F900F0CBF84FF4FA70F0
:1002700000F022F980218C4800F09AF904004FF434
:10028000FA7000F019F900F0C2F84FF47A7000F03B
:1002900013F900F07DF82000C0B210BD80B500F069
:1002A00077F800F0A8F84FF47A7000F005F900F044
:1002B000A8F84FF47A7000F0FFF800F0A8F84FF4B7
:1002C0007A7000F0F9F800F054F801BD80B500F044
:1002D0005FF800F08AF84FF47A7000F0EDF800F063
:1002E00090F84FF47A7000F0E7F800F090F84FF4CF
:1002F0007A7000F0E1F801BD38B50400002504E093
:100300000020C0B200F089F86D1CEDB2082D09D2B2
:100310000120D5F1070188402100C9B20142EFD088
:100320000120EEE731BD38B50025002406E06D0060
:1003300000F09DF8002800D06D1C641CE4B2082C6D
:10034000F5D32800C0B232BD80B500F054F800F0FB
:100350005EF84FF47A7000F0AFF800F052F8FA202F
:1003600000F0AAF800F041F84FF47A7000F0A4F819
:1003700001BD80B58020ADF8000003208DF802009B
:1003800004208DF8030000A9474800F0ABF801BD38
:1003900080B58020ADF8000003208DF80200102009
:1003A0008DF8030000A9404800F09CF801BD80B51D
:1003B0004020ADF8000003208DF8020004208DF8E5
:1003C000030000A9384800F08DF801BD80B5402039
:1003D000ADF8000003208DF8020010208DF8030016
:1003E00000A9314800F07EF801BD80B580212E487B
:1003F00000F0E9F801BD80B580212B4800F0E6F857
:1004000001BD80B54021284800F0DDF801BD80B570
:100410004021254800F0DAF801BD80B5C0B20028BF
:1004200012D0FFF7E2FF4FF47A7000F045F8FFF7C3
:10043000E8FF4FF47A7000F03FF8FFF7E8FF4FF461
:100440007A7000F039F811E0FFF7D5FF4FF47A70B9
:1004500000F032F8FFF7D5FF4FF47A7000F02CF877
:10046000FFF7D5FF4FF47A7000F026F801BD10B504
:100470004FF47A7000F020F8FFF7C3FF4FF4FA70E2
:1004800000F01AF88021084800F092F804004FF4B8
:10049000FA7000F011F8FFF7BAFF4FF47A7000F02D
:1004A0000BF82000C0B210BD000C014080B5FFF772
:1004B00060FFFFF77CFF01BD00E0401E0028FCD17B
:1004C000704750F8041B61B150F8042BD30744BFA8
:1004D000A9F101039A18002342F8043B091FFAD13D
:1004E000EFE77047F0B40022002600240025002327
:1004F000002791F803C01CF00F0C624691F803C06E
:100500005FEACC6C01D58B781A430B781B0621D09F
:100510000368002406E0CD78482D02D10125A540CE
:100520000561641C082C14D20125A5400E882E40BC
:10053000AE42F6D1A5000F2616FA05F7BB4312FA14
:1005400005F52B43CD78282DE5D10125A540456142
:10055000E7E703600B884FF48074A34226D3436817
:10056000002420E0012514F10806B5400E882E4035
:10057000AE4217D1A5000F2616FA05F7BB4312FAB3
:1005800005F52B43CD78282D04D1012514F108065B
:10059000B5404561CD78482D04D1012514F10806F8
:1005A000B5400561641C082CDCD34360F0BC704787
:1005B0000022806880B2084201D0012200E00022BF
:1005C0001000C0B2704789B20161704789B24161C1
:1005D0007047000080B54F48006850F001004D4959
:1005E00008604D4800684D4908404B49086049483B
:1005F00000684B490840474908604648006830F4A5
:100600008020444908604448006830F4FE004249B4
:10061000086044485FF41F01016000F005F842489B
:100620005FF00061016001BD80B500F001F801BD1F
:1006300082B000200190002000903648006850F4FD
:100640008030344908603348006810F4003000906E
:100650000198401C01900098002803D10198B0F542
:10066000A06FF0D12B480068800302D501200090D4
:1006700001E0002000900098012847D12B48006835
:1006800050F0100029490860284800688008800060
:10069000264908602548006850F002002349086098
:1006A0001D481D49096801601B481B490968016014
:1006B0001948006850F480601749086016480068BF
:1006C00030F47C10144908601348006850F4E810B6
:1006D000114908600F48006850F080700D490860AB
:1006E0000C4800688001FBD50B480068800880003A
:1006F000094908600848006850F00200064908608F
:100700000548006810F00C000828F9D102B07047C5
:100710000000000000100240041002400000FFF83A
:10072000FFFFF6FE0810024008ED00E00020024046
:10073000002100E0491CC9B2052918D2C9B21F4ADC
:1007400012EB8102B2F9022012B2C83A00B2824220
:10075000F0DA80B2C9B2194A12EB81025288C8326B
:100760009042E7DAC9B2154810F8210000E00520F0
:10077000704780B5022000F025F8002806D001213E
:100780000C4800F039F8022000F02EF801BD80B5C9
:100790000C21084800F03DF80948006880B2FFF7D6
:1007A000C7FF05490968002903D0C0B2024909689A
:1007B000884701BD003C014028000020280A0000B5
:1007C0003C3C014000210022094B1B6803401A00F9
:1007D000084B1B68034203D0002A01D0012100E02E
:1007E00000210800C0B2704702490860704700004D
:1007F0000004014014040140C9B2002904D08168FA
:1008000051F40211816003E0816831F402118160CA
:100810007047C9B2C94301607047000010B54FF47A
:100820000040FFF7CFFF002839D01E48CC210170CF
:1008300001221C499020FFF77BFC022219499020DD
:10084000FFF7A9FC1748007816494978C9B2090989
:10085000C9B251EA00141348D02101700122114994
:100860009020FFF765FC02220E499020FFF793FCD1
:100870000C4800780B494978C9B20909C9B251EA54
:10088000001109480068002805D089B2200080B214
:10089000054A126890474FF40040FFF7A5FF10BDCE
:1008A000000000003A0000203400002010B51A4873
:1008B0000068401C184908600121144800F02EF817
:1008C00000241DE0E4B2124830F81400002816D0CD
:1008D00011480068E4B20E4931F81410B0FBF1F28F
:1008E00001FB120000280AD1E4B20A4850F82400A3
:1008F000002804D0E4B2074850F824008047641C64
:10090000E4B2052CDED310BD000000000010004052
:1009100014000020000000203000002089B2C943EC
:100920000182704780B5124800884FF6DF71084099
:100930000F49088010480068002805D00F4800883B
:10094000C0B20D490968884701BD80B509480088D3
:100950004FF6DF71084007490880074840680028C3
:1009600005D007480088C0B203494968884701BDDF
:1009700000380140004400402000002004380140BD
:100980000444004010B5084979441C31074C7C44AC
:100990001A34A14206D0081D0A685118884701463A
:1009A000A142F8D110BD00BF300000003C000000A3
:1009B00080B507480068002802D0054800688047D5
:1009C00001BD04480088401C0249088070470000AF
:1009D0002C00002038000020EBFAFFFF3C00000054
:1009E000000000200000000000F009F8002801D0FD
:1009F000FFF7C8FF002000F004F800F003F8012022
:100A00007047FEE700F000B80746384600F002F8ED
:100A1000FBE7000080B5C046C046024A110018201E
:100A2000ABBEFBE7260002000300000000001A0333
:100A30000400660602008D090100B30C01488047DE
:100A400001480047D50500004D0A0000C046C046D9
:100A5000C046C046FFF7C8FFFFF7FEBFFFF7B1BFB4
:100A6000FFF7FEBFFFF7FEBFFFF7FEBFFFF7FEBFBA
:100A7000FFF7FEBFFFF7FEBFFFF79ABFFFF7FEBF0E
:100A8000FFF7FEBFFFF7FEBFFFF7FEBFFFF7FEBF9A
:100A9000FFF7FEBFFFF7FEBFFFF76BBEFFF7FEBF1E
:100AA000FFF7FEBFFFF7FEBFFFF7FEBFFFF7FEBF7A
:100AB000FFF7FEBFFFF7FEBFFFF7FEBFFFF7FEBF6A
:100AC000FFF7FEBFFFF7FEBFFFF7FEBFFFF7FEBF5A
:100AD000FFF7FEBFFFF7FEBFFFF7FEBFFFF7FEBF4A
:100AE000FFF7FEBFFFF7FEBFFFF7FEBFFFF7FEBF3A
:100AF000FFF7FEBFFFF7FEBFFFF7FEBFFFF7FEBF2A
:100B0000FFF7FEBFFFF7FEBFFFF7FEBFFFF7FEBF19
:100B1000FFF708BFFFF719BFFFF7FEBFFFF77EBE65
:100B2000FFF7FEBFFFF7FEBFFFF7FEBFFFF7FEBFF9
:100B3000FFF7FEBFFFF7FEBFFFF729BEFFF7FEBFBF
:100B4000FFF7FEBFFFF7FEBFFFF7FEBFFFF7FEBFD9
:100B5000FFF7FEBFFFF7AABEFFF7FEBFFFF7FEBF1E
:0C0B6000FFF7FEBFFFF7FEBFFFF7FEBF70
:0400000500000A4DA0
:00000001FF
