:1000000000040020CD020000E9020000ED02000023
:10001000F1020000F5020000F902000000000000FB
:10002000000000000000000000000000FD020000D1
:1000300001030000000000000503000009030000A8
:100040000D03000011030000150300001903000058
:100050001D03000021030000250300002903000008
:100060002D030000310300003503000039030000B8
:100070003D03000041030000450300004903000068
:100080004D03000051030000550300005903000018
:100090005D030000610300006503000069030000C8
:1000A0006D03000071030000750300007903000078
:1000B0007D03000081030000850300008903000028
:1000C0008D030000910300009503000099030000D8
:1000D0009D030000A1030000A5030000A903000088
:1000E000AD030000B1030000B5030000B903000038
:1000F000BD030000C1030000C5030000C9030000E8
:10010000CD030000D1030000D5030000D903000097
:10011000DD030000E1030000E5030000E903000047
:10012000ED030000F1030000F5030000F9030000F7
:1001300080B54F48006850F001004D4908604D48B7
:1001400000684D4908404B490860494800684B49E0
:100150000840474908604648006830F48020444918
:1001600008604448006830F4FE0042490860444892
:100170005FF41F01016000F005F842485FF0006184
:10018000016001BD80B500F001F801BD82B0002022
:100190000190002000903648006850F480303449C7
:1001A00008603348006810F4003000900198401C4B
:1001B00001900098002803D10198B0F5A06FF0D10C
:1001C0002B480068800302D50120009001E0002048
:1001D00000900098012847D12B48006850F010008B
:1001E000294908602848006880088000264908607E
:1001F0002548006850F00200234908601D481D4949
:10020000096801601B481B490968016019480068BA
:1002100050F48060174908601648006830F47C107C
:10022000144908601348006850F4E8101149086048
:100230000F48006850F080700D4908600C48006855
:100240008001FBD50B4800688008800009490860E0
:100250000848006850F00200064908600548006838
:1002600010F00C000828F9D102B07047000000001F
:1002700000100240041002400000FFF8FFFFF6FEED
:100280000810024008ED00E00020024000F009F8EC
:10029000002801D0C046C046002000F004F800F05D
:1002A00003F801207047FEE700F000B80746384623
:1002B00000F002F8FBE7000080B5C046C046024AE5
:1002C00011001820ABBEFBE7260002000148804762
:1002D0000148004731010000DD020000C046C04671
:1002E000C046C046FFF7D2FFFFF7FEBFFFF7FEBFD5
:1002F000FFF7FEBFFFF7FEBFFFF7FEBFFFF7FEBF32
:10030000FFF7FEBFFFF7FEBFFFF7FEBFFFF7FEBF21
:10031000FFF7FEBFFFF7FEBFFFF7FEBFFFF7FEBF11
:10032000FFF7FEBFFFF7FEBFFFF7FEBFFFF7FEBF01
:10033000FFF7FEBFFFF7FEBFFFF7FEBFFFF7FEBFF1
:10034000FFF7FEBFFFF7FEBFFFF7FEBFFFF7FEBFE1
:10035000FFF7FEBFFFF7FEBFFFF7FEBFFFF7FEBFD1
:10036000FFF7FEBFFFF7FEBFFFF7FEBFFFF7FEBFC1
:10037000FFF7FEBFFFF7FEBFFFF7FEBFFFF7FEBFB1
:10038000FFF7FEBFFFF7FEBFFFF7FEBFFFF7FEBFA1
:10039000FFF7FEBFFFF7FEBFFFF7FEBFFFF7FEBF91
:1003A000FFF7FEBFFFF7FEBFFFF7FEBFFFF7FEBF81
:1003B000FFF7FEBFFFF7FEBFFFF7FEBFFFF7FEBF71
:1003C000FFF7FEBFFFF7FEBFFFF7FEBFFFF7FEBF61
:1003D000FFF7FEBFFFF7FEBFFFF7FEBFFFF7FEBF51
:1003E000FFF7FEBFFFF7FEBFFFF7FEBFFFF7FEBF41
:0C03F000FFF7FEBFFFF7FEBFFFF7FEBFE8
:04000005000002DD18
:00000001FF
